:020000040800F2
:1000000000280020A1150008991400089F1400087A
:10001000A5140008AB140008B1140008000000008B
:10002000000000000000000000000000B7140008FD
:10003000C314000800000000CF140008DB140008FF
:10004000E9150008E9150008E9150008E915000898
:10005000E9150008E9150008E9150008E915000888
:10006000E9150008E9150008E9150008E915000878
:10007000E9150008E9150008E9150008E915000868
:10008000E9150008E9150008E9150008E915000858
:10009000E9150008E9150008E9150008E915000848
:1000A000E9150008E9150008E9150008E915000838
:1000B000E9140008E915000800000000E91500082F
:1000C000E91500080000000000000000E915000824
:1000D00000000000E9150008E91500080000000014
:1000E000E9150008E9150008E915000800000000FE
:1000F0000000000000000000000000000000000000
:0C01000000000000000000005FF808F1A3
:10010C0010B5054C237833B9044B13B10448AFF345
:10011C0000800123237010BD44000020000000006B
:10012C00182C000808B5034B1BB103490348AFF367
:10013C00008008BD0000000048000020182C0008BA
:10014C0080B500AFAC4B1B68013B032B00F2328136
:10015C0001A252F823F000BF75010008E30100086A
:10016C003B030008BD02000801220821A34801F04E
:10017C0038FD00222021A14801F033FD002210217E
:10018C009E4801F02EFD002240219C4801F029FDE3
:10019C0000224FF48071994801F023FD0122802147
:1001AC00964801F01EFD944B02221A60944B0022DB
:1001BC001A60934B00225A60914B00229A60914B2B
:1001CC001B68914A1360914B1B68914A1360914BC9
:1001DC0001221A60F5E08C4B1A688F4B1B689A420F
:1001EC0022D100224021854801F0FBFC01224FF472
:1001FC008071824801F0F5FC002280217F4801F0DB
:10020C00F0FC012208217D4801F0EBFC00222021AA
:10021C007A4801F0E6FC00221021784801F0E1FC5C
:10022C007D4B1B687A4A1360774B1B68002B29D1D6
:10023C0000220821714801F0D4FC002220216F48D3
:10024C0001F0CFFC012210216C4801F0CAFC012204
:10025C0040216A4801F0C5FC00224FF480716748C8
:10026C0001F0BFFC00228021644801F0BAFC674B0E
:10027C001B68654A1360634B1B68654A13605E4BD1
:10028C0004221A60012000F055FC0346012B40F0BB
:10029C009380594B0B221A605B4B1B685F4A1360AF
:1002AC005B4B1B685D4A53605A4B00221A6083E01B
:1002BC00554B1B68002B25D1002208214F4801F01B
:1002CC0090FC012220214D4801F08BFC00221021D2
:1002DC004A4801F086FC01224021484801F081FC8B
:1002EC0000224FF48071454801F07BFC00228021F4
:1002FC00424801F076FC484B1B68434A13603E4B66
:10030C0003221A60012000F015FC0346012B55D185
:10031C00394B0B221A603C4B1B68404A13603C4B18
:10032C001B683E4A53603B4B00221A6046E0364B3A
:10033C001B68002B29D101220821304801F051FC07
:10034C00002220212D4801F04CFC002210212B48CA
:10035C0001F047FC00224021284801F042FC002219
:10036C004FF48071254801F03CFC01228021234888
:10037C0001F037FC234B1B68234A1360234B1B688B
:10038C00234A13601C4B02221A60012000F0D2FB9E
:10039C000346012B14D1184B0B221A601A4B1B6805
:1003AC001E4A13601A4B1B681C4A5360194B0022DF
:1003BC001A6005E000BF04E000BF02E000BF00E0EF
:1003CC0000BF174B5B68012B13D1124B1B68002B22
:1003DC000FD00D4B1B68013B0B4A13600C4B1B6879
:1003EC00013B0B4A13600F4B5B681946012001F06F
:1003FC0085F800BF80BD00BF7000002000080140E0
:10040C00980000200000002078000020040000204C
:10041C007C0000200C00002008000020A40000201C
:10042C00080100201400002080B500AFA34B1B680E
:10043C000B3B032B00F29E8101A252F823F000BF6C
:10044C005D0400089F040008630600088B05000883
:10045C00002240219A4801F0C4FB00224FF4807125
:10046C00974801F0BEFB00228021954801F0B9FBB2
:10047C00924B0C221A60934B1B68934A1360934B5C
:10048C0002221A60924B9B681946022001F036F842
:10049C0070E1002220218A4801F0A3FB00221021E8
:1004AC00874801F09EFB012000F044FB0346002B23
:1004BC000FD0824B0D221A60864B1B68824A136048
:1004CC00824B03221A60824B9B681946022001F072
:1004DC0015F8022000F02EFB0346002B0BD07A4BB4
:1004EC001B680133784A1360794B9B6819460220CC
:1004FC0001F004F814E0022000F038FB0346002B56
:10050C000ED0754BDB68012B0AD16F4B1B68013386
:10051C006D4A13606E4BDB681946032000F0EEFF4A
:10052C00032000F007FB0346002B18D0664B1A681B
:10053C00644B1B68D21A674B1B681344654A1360E3
:10054C00614B1B685F4A1360012208215C4801F073
:10055C0048FB5F4B1B691946022000F0CFFF5E4B36
:10056C009B68012B40F001810821554801F051FB9B
:10057C00574B9B681946022000F0C0FFF5E00022A3
:10058C0008214F4801F02DFB002210214C4801F0AE
:10059C0028FB012000F0CEFA0346002B05D0474B78
:1005AC0001221A604D4B01221A60022000F0C2FA9F
:1005BC000346002B0BD0444B1B680133424A13609B
:1005CC00434B9B681946022000F098FF14E0022070
:1005DC0000F0CCFA0346002B0ED03F4BDB68012B0E
:1005EC000AD1394B1B680133374A1360384BDB682F
:1005FC001946032000F082FF032000F09BFA03460B
:10060C00002B18D0304B1A68354B1B68D21A2D4B67
:10061C001B6813442B4A13602B4B1B68304A136026
:10062C0001222021264801F0DCFA294B1B691946CE
:10063C00022000F063FF284B9B68012B40F0978051
:10064C0020211F4801F0E5FA214B9B681946022036
:10065C0000F054FF8BE000220821194801F0C1FA88
:10066C0000222021164801F0BCFA012000F062FAA9
:10067C000346002B0FD0114B0E221A60184B1B682F
:10068C00114A1360114B04221A60114B9B681946D6
:10069C00022000F033FF022000F04CFA0346002B3E
:1006AC0020D0094B1B680133074A1360084B9B6829
:1006BC001946022000F022FF29E000BF7000002044
:1006CC000008014000000020780000207C00002081
:1006DC001400002004000020080100200C00002061
:1006EC0008000020022000F041FA0346002B0ED037
:1006FC00214BDB68012B0AD1204B1B6801331F4AAD
:10070C0013601F4BDB681946032000F0F7FE032033
:10071C0000F010FA0346002B18D0184B1A68194B2E
:10072C001B68D21A184B1B681344174A1360134BDF
:10073C001B68144A136001221021144801F051FA6D
:10074C000F4B1B691946022000F0D8FE0A4B9B6820
:10075C00012B0ED110210D4801F05BFA084B9B6860
:10076C001946022000F0CAFE03E000BF02E000BF01
:10077C0000E000BF00BF80BD080100207800002011
:10078C00140000200400002000000020000801409C
:10079C0080B483B000AF7860074A7B68012142F8CF
:1007AC002310064A7B68002142F8231000BF0C3747
:1007BC00BD4680BC704700BF980000208C00002014
:1007CC0080B483B000AF7860074A7B68002142F8A0
:1007DC002310064A7B68012142F8231000BF0C3716
:1007EC00BD4680BC704700BF980000208C000020E4
:1007FC0080B483B000AF7860074A7B68002142F870
:10080C002310064A7B68002142F8231000BF0C37E6
:10081C00BD4680BC704700BF980000208C000020B3
:10082C0080B582B000AF00237B6075E19F4A7B6886
:10083C00134419789E4A7B6813440A461A709D4AE1
:10084C007B6813441978994A7B6813440A461A70DA
:10085C007B68022B00F0DF807B68022B00F3528157
:10086C007B68002B03D07B68012B6DD04AE14FF4E1
:10087C000051914801F09EF9034619468D4A7B6858
:10088C0013440A461A708A4A7B6813441A788749BB
:10089C007B680B441B789A4240F03681834A7B6814
:1008AC0013441A7883497B680B441B789A4240F0B6
:1008BC002B81824A7B6813441A787E497B680B44EF
:1008CC001B789A4221D07B4A7B68134419787B4A67
:1008DC007B6813440A461A70764A7B6813441B786B
:1008EC00002B03D17868FFF753FF08E0714A7B684F
:1008FC0013441B78012B02D17868FFF779FF704AFB
:10090C007B68C82142F82310FEE06D4A7B6852F8E0
:10091C0023305A1E6A497B6841F82320684A7B6859
:10092C0052F82330002B00F3EF80624A7B681344AB
:10093C001B78002B02D17868FFF72AFF604A7B688E
:10094C00C82142F82310DFE002215E4801F032F9A1
:10095C0003461946574A7B6813440A461A70544A90
:10096C007B6813441A7851497B680B441B789A4274
:10097C0040F0CC804D4A7B6813441A784D497B6813
:10098C000B441B789A4240F0C1804C4A7B6813445C
:10099C001A7848497B680B441B789A4221D0454A07
:1009AC007B6813441978454A7B6813440A461A70CD
:1009BC00404A7B6813441B78002B03D17868FFF7FF
:1009CC00E7FE08E03B4A7B6813441B78012B02D1FD
:1009DC007868FFF70DFF3A4A7B68C82142F823106C
:1009EC0094E0374A7B6852F823305A1E34497B68AE
:1009FC0041F82320324A7B6852F82330002B00F355
:100A0C0085802C4A7B6813441B78002B7ED1786838
:100A1C00FFF7D6FE7AE004212A4801F0CBF8034612
:100A2C001946244A7B6813440A461A70204A7B688C
:100A3C0013441A781D497B680B441B789A4267D182
:100A4C001A4A7B6813441A781A497B680B441B7842
:100A5C009A425DD1194A7B6813441A7815497B6810
:100A6C000B441B789A422FD0124A7B681344197896
:100A7C00124A7B6813440A461A700E4A7B68134468
:100A8C001B78002B03D17868FFF782FE08E0094A37
:100A9C007B6813441B78012B02D17868FFF7A8FE02
:100AAC00074A7B68C82142F8231031E06800002017
:100ABC006400002060000020001001406C00002049
:100ACC008000002000080140184A7B6852F823304F
:100ADC005A1E16497B6841F82320144A7B6852F849
:100AEC002330002B14DC124A7B6813441B78002B38
:100AFC0002D17868FFF74CFE0C4A7B68C82142F89B
:100B0C00231005E000BF04E000BF02E000BF00E0DE
:100B1C0000BF7B6801337B607B68022B7FF786AE5E
:100B2C0000BF00BF0837BD4680BD00BF800000205D
:100B3C006000002080B483B000AF78607B68013B1C
:100B4C00094A52F82330012B07D17B68013B064A36
:100B5C00002142F82310012300E0002318460C3733
:100B6C00BD4680BC704700BF9800002080B483B0A5
:100B7C0000AF78607B68013B094A52F82330012BA7
:100B8C0007D17B68013B064A002142F82310012360
:100B9C0000E0002318460C37BD4680BC704700BFF0
:100BAC008C00002080B582B000AF78607B68092B88
:100BBC0000F2C88101A252F823F000BFF10B00082B
:100BCC00470C00089D0C0008F30C0008490D0008A8
:100BDC009F0D00084B0E0008F50D0008A10E000833
:100BEC00F70E000800224FF40071D54800F0F9FF11
:100BFC0000224FF48061D24800F0F3FF00224FF442
:100C0C000061CF4800F0EDFF00224FF48051CC483A
:100C1C0000F0E7FF00224FF40051C94800F0E1FF5B
:100C2C0000224FF48041C64800F0DBFF01224FF454
:100C3C000041C34800F0D5FFAFE101224FF4007131
:100C4C00BF4800F0CEFF00224FF48061BC4800F09A
:100C5C00C8FF00224FF40061B94800F0C2FF012226
:100C6C004FF48051B64800F0BCFF01224FF4005104
:100C7C00B34800F0B6FF01224FF48041B04800F0B9
:100C8C00B0FF01224FF40041AD4800F0AAFF84E10F
:100C9C0000224FF40071AA4800F0A3FF00224FF489
:100CAC008061A74800F09DFF01224FF40061A44829
:100CBC0000F097FF00224FF48051A14800F091FF03
:100CCC0000224FF400519E4800F08BFF01224FF49C
:100CDC0080419B4800F085FF00224FF4004198486A
:100CEC0000F07FFF59E100224FF40071944800F0AE
:100CFC0078FF00224FF48061914800F072FF0022CF
:100D0C004FF400618E4800F06CFF00224FF48051CC
:100D1C008B4800F066FF01224FF40051884800F028
:100D2C0060FF01224FF48041854800F05AFF0022F9
:100D3C004FF40041824800F054FF2EE101224FF4A1
:100D4C0000717F4800F04DFF00224FF480617C4819
:100D5C0000F047FF00224FF40061794800F041FF9A
:100D6C0001224FF48051764800F03BFF01224FF4F2
:100D7C000051734800F035FF00224FF48041704859
:100D8C0000F02FFF00224FF400416D4800F029FFC6
:100D9C0003E100224FF40071694800F022FF0122A8
:100DAC004FF48061664800F01CFF00224FF4006194
:100DBC00634800F016FF00224FF48051604800F0A9
:100DCC0010FF01224FF400515D4800F00AFF002291
:100DDC004FF480415A4800F004FF00224FF40041C8
:100DEC00574800F0FEFED8E000224FF40071544842
:100DFC0000F0F7FE00224FF48061514800F0F1FE44
:100E0C0000224FF400614E4800F0EBFE01224FF43B
:100E1C0080514B4800F0E5FE01224FF40051484848
:100E2C0000F0DFFE01224FF48041454800F0D9FE6E
:100E3C0001224FF40041424800F0D3FEADE0002205
:100E4C004FF400713E4800F0CCFE01224FF480615B
:100E5C003B4800F0C6FE00224FF40061384800F019
:100E6C00C0FE00224FF48051354800F0BAFE00223B
:100E7C004FF40051324800F0B4FE00224FF4804190
:100E8C002F4800F0AEFE00224FF400412C4800F039
:100E9C00A8FE82E000224FF40071294800F0A1FE68
:100EAC0000224FF48061264800F09BFE00224FF494
:100EBC000061234800F095FE00224FF48051204839
:100ECC0000F08FFE00224FF400511D4800F089FE07
:100EDC0000224FF480411A4800F083FE00224FF4A8
:100EEC000041174800F07DFE57E000224FF40071DE
:100EFC00134800F076FE00224FF48061104800F099
:100F0C0070FE00224FF400610D4800F06AFE0022D2
:100F1C004FF480510A4800F064FE01224FF4005156
:100F2C00074800F05EFE00224FF48041044800F0B8
:100F3C0058FE00224FF40041014800F052FE2CE014
:100F4C000008014001224FF40071164800F049FEE0
:100F5C0001224FF48061134800F043FE01224FF44C
:100F6C000061104800F03DFE01224FF480510D4805
:100F7C0000F037FE01224FF400510A4800F031FE18
:100F8C0001224FF48041074800F02BFE00224FF461
:100F9C000041044800F025FE00BF00BF0837BD46E5
:100FAC0080BD00BF0008014080B582B000AF786002
:100FBC005A4B1B68032B00F2958001A252F823F0C8
:100FCC00DD0F00081D10000867100008A7100008AE
:100FDC00534B1B68534A82FB03129210DB17D31A34
:100FEC001846FFF7DFFD002201214F4800F0F9FD04
:100FFC00012202214C4800F0F4FD012204214A4850
:10100C0000F0EFFD01220821474800F0EAFD6AE0FC
:10101C00434B1A68434B83FB02139910D317C91A1D
:10102C000B469B000B445B00D11A0846FFF7BAFD38
:10103C00002202213C4800F0D4FD012201213A4853
:10104C0000F0CFFD01220421374800F0CAFD012237
:10105C000821354800F0C5FD45E0344B1B68314A8A
:10106C0082FB03129210DB17D31A1846FFF79AFD76
:10107C00012202212C4800F0B4FD012201212A4852
:10108C0000F0AFFD00220421274800F0AAFD012248
:10109C000821254800F0A5FD25E0244B1A68214BBA
:1010AC0083FB02139910D317C91A0B469B000B44F0
:1010BC005B00D11A0846FFF775FD012202211A4880
:1010CC0000F08FFD01220121174800F08AFD01225A
:1010DC000421154800F085FD00220821124800F07B
:1010EC0080FD00E000BF124B1B68012B11D10B4B94
:1010FC001B680133094A1360084B1B68032B02DD84
:10110C00064B00221A600B4B1B681946002000F09E
:10111C00F5F900BF0837BD4680BD00BF7400002044
:10112C007800002067666666000C01407C00002099
:10113C00080100201400002080B500AF0E4B1B6886
:10114C001946002000F0DAF90B4B5B6819460120B8
:10115C0000F0D4F9084B9B681946022000F0CEF938
:10116C00054BDB681946032000F0C8F9034B01223C
:10117C001A6000BF80BD00BF14000020700000206A
:10118C0080B500AF00F02CFA00F014F800F09AF8DB
:10119C0000F04CF8064801F081F9FFF7CDFFFEF79F
:1011AC00CFFF0120FFF700FFFFF73EF9F7E700BF85
:1011BC00AC00002080B590B000AF07F118032822D6
:1011CC000021184601F01AFD3B1D00221A605A60DE
:1011DC009A60DA601A610223BB610123BB6210239F
:1011EC00FB6200237B6307F11803184600F02AFD0D
:1011FC000346002B01D000F0EDF80F237B60002399
:10120C00BB600023FB6000233B6100237B613B1D23
:10121C000021184600F096FF0346002B01D000F089
:10122C00D9F800BF4037BD4680BD000080B586B000
:10123C0000AF07F1080300221A605A609A60DA6066
:10124C003B4600221A605A601D4B4FF080421A60D8
:10125C001B4B41F63F725A60194B00229A60184B97
:10126C000922DA60164B00221A61154B00229A6192
:10127C00134801F0C3F80346002B01D000F0AAF884
:10128C004FF48053BB6007F1080319460C4801F07A
:10129C0041FA0346002B01D000F09CF800233B6080
:1012AC0000237B603B461946054801F019FC0346B8
:1012BC00002B01D000F08EF800BF1837BD4680BD62
:1012CC00AC00002080B588B000AF07F110030022FD
:1012DC001A605A609A60DA60344B9B69334A43F067
:1012EC0010039361314B9B6903F01003FB60FB68A7
:1012FC002E4B9B692D4A43F0040393612B4B9B6946
:10130C0003F00403BB60BB68284B9B69274A43F07E
:10131C0008039361254B9B6903F008037B607B6892
:10132C0000224FF6F871224800F05BFC00220F21DE
:10133C00204800F056FC4FF400533B6100237B61C6
:10134C000123BB6107F1100319461B4800F0B8FAE2
:10135C0006233B6100237B610123BB6107F1100372
:10136C001946134800F0ACFA4FF6F8733B610123B1
:10137C007B610023BB610223FB6107F1100319465B
:10138C000B4800F09DFA0F233B6101237B61002386
:10139C00BB610223FB6107F110031946054800F0FD
:1013AC008FFA00BF2037BD4680BD00BF0010024041
:1013BC0000080140000C01400010014080B582B0D3
:1013CC0000AF786000F0BAF8FFF72AFA00BF0837D0
:1013DC00BD4680BD80B400AF72B600BFFEE7000012
:1013EC0080B485B000AF154B9B69144A43F00103E0
:1013FC009361124B9B6903F00103BB60BB680F4BFD
:10140C00DB690E4A43F08053D3610C4BDB6903F06C
:10141C0080537B607B680A4B5B68FB60FB6823F046
:10142C00E063FB60FB6843F08063FB60044AFB688D
:10143C00536000BF1437BD4680BC7047001002409B
:10144C000000014080B584B000AF78607B681B68F9
:10145C00B3F1804F13D10C4BDB690B4A43F0010302
:10146C00D361094BDB6903F00103FB60FB680022CD
:10147C0000211C2000F0EDF91C2000F006FA00BF42
:10148C001037BD4680BD00BF0010024080B400AFD5
:10149C00FEE780B400AFFEE780B400AFFEE780B497
:1014AC0000AFFEE780B400AFFEE780B400AF00BF32
:1014BC00BD4680BC704780B400AF00BFBD4680BC49
:1014CC00704780B400AF00BFBD4680BC704780B58C
:1014DC0000AF00F0CBF800BF80BD000080B500AFBE
:1014EC00024801F027F800BF80BD00BFAC0000200F
:1014FC0080B400AF00BFBD4680BC704780B483B0E1
:10150C0000AF786039600A4A7B68002142F82310EA
:10151C003B68084A82FB03129210DB17D21A064969
:10152C007B6841F8232000BF0C37BD4680BC704758
:10153C000801002067666666F400002080B483B062
:10154C0000AF00237B6017E0104A7B6852F8233011
:10155C00002B05DC0E4A7B68012142F8231008E0C1
:10156C000A4A7B6852F823305A1E08497B6841F8B6
:10157C0023207B6801337B607B68042BE4DD00BF98
:10158C0000BF0C37BD4680BC704700BFF400002084
:10159C0008010020FFF7ACFF0B480C490C4A002354
:1015AC0002E0D458C4500433C4188C42F9D3094A0D
:1015BC00094C002301E013600432A242FBD301F07A
:1015CC00F9FAFFF7DDFD7047000000204400002011
:1015DC005C2C00084400002020010020FEE70000E5
:1015EC0080B500AF084B1B68074A43F0100313602B
:1015FC00032000F023F90F2000F008F8FFF7F0FEAD
:10160C000023184680BD00BF0020024080B582B088
:10161C0000AF7860124B1A68124B1B7819464FF4C6
:10162C007A73B3FBF1F3B2FBF3F3184600F03BF91A
:10163C000346002B01D001230EE07B680F2B0AD848
:10164C00002279684FF0FF3000F003F9064A7B68FE
:10165C001360002300E0012318460837BD4680BD07
:10166C0010000020400000203C00002080B400AF9F
:10167C00054B1B781A46054B1B681344034A136031
:10168C0000BFBD4680BC7047400000201C010020FC
:10169C0080B400AF024B1B681846BD4680BC704737
:1016AC001C01002080B485B000AF78607B6803F02B
:1016BC000703FB600C4BDB68BB60BA684FF6FF039B
:1016CC001340BB60FB681A02BB68134343F0BF6353
:1016DC0043F40033BB60044ABB68D36000BF1437CB
:1016EC00BD4680BC704700BF00ED00E080B400AF89
:1016FC00044BDB681B0A03F007031846BD4680BC8D
:10170C00704700BF00ED00E080B483B000AF03462B
:10171C00FB7197F90730002B0BDBFB7903F01F02F1
:10172C00064997F907305B09012000FA02F241F8EB
:10173C00232000BF0C37BD4680BC704700E100E0A1
:10174C0080B483B000AF03463960FB7197F9073062
:10175C00002B0ADB3B68DAB20C4997F9073012010F
:10176C00D2B20B4483F800230AE03B68DAB2084992
:10177C00FB7903F00F03043B1201D2B20B441A762F
:10178C0000BF0C37BD4680BC704700BF00E100E0D5
:10179C0000ED00E080B489B000AFF860B9607A6009
:1017AC00FB6803F00703FB61FB69C3F10703042B20
:1017BC0028BF0423BB61FB690433062B02D9FB69E8
:1017CC00033B00E000237B614FF0FF32BB6902FA60
:1017DC0003F3DA43BB681A407B699A404FF0FF3140
:1017EC007B6901FA03F3D9437B680B40134318461A
:1017FC002437BD4680BC704780B582B000AF78609E
:10180C007B68013BB3F1807F01D301230FE00A4ACF
:10181C007B68013B53600F214FF0FF30FFF790FFC7
:10182C00054B00229A60044B07221A6000231846CD
:10183C000837BD4680BD00BF10E000E080B582B027
:10184C0000AF78607868FFF72DFF00BF0837BD4602
:10185C0080BD80B586B000AF0346B9607A60FB737B
:10186C0000237B61FFF742FF78617A68B968786979
:10187C00FFF790FF024697F90F3011461846FFF715
:10188C005FFF00BF1837BD4680BD80B582B000AF8A
:10189C000346FB7197F907301846FFF735FF00BF79
:1018AC000837BD4680BD80B582B000AF78607868DF
:1018BC00FFF7A2FF034618460837BD4680BD00005F
:1018CC0080B48BB000AF7860396000237B6200235A
:1018DC003B6248E101227B6A02FA03F3FB613B683D
:1018EC001B68FA691340BB61BA69FB699A4240F004
:1018FC0037813B685B68A34A93425ED0A14A93420E
:10190C0075D8A14A934258D09F4A93426FD89F4AA8
:10191C00934252D09D4A934269D89D4A93424CD0EF
:10192C009B4A934263D89B4A934246D0994A93422E
:10193C005DD8122B2AD8122B59D801A252F823F0B9
:10194C00C7190008A1190008B3190008F5190008F7
:10195C00FB190008FB190008FB190008FB1900080B
:10196C00FB190008FB190008FB190008FB190008FB
:10197C00FB190008FB190008FB190008FB190008EB
:10198C00FB190008A9190008BD190008824A9342E6
:10199C0013D02CE03B68DB683B6229E03B68DB68DA
:1019AC0004333B6224E03B68DB6808333B621FE096
:1019BC003B68DB680C333B621AE03B689B68002B8E
:1019CC0002D104233B6213E03B689B68012B05D1D9
:1019DC0008233B627B68FA691A6109E008233B62C1
:1019EC007B68FA695A6103E000233B6200E000BFA8
:1019FC00BB69FF2B01D87B6801E07B6804337B61FA
:101A0C00BB69FF2B02D87B6A9B0002E07B6A083B18
:101A1C009B003B617B691A680F213B6901FA03F358
:101A2C00DB431A40396A3B6901FA03F31A437B69B9
:101A3C001A603B685B6803F08053002B00F09080C9
:101A4C00564B9B69554A43F001039361534B9B6979
:101A5C0003F00103BB60BB68514A7B6A9B080233ED
:101A6C0052F82330FB607B6A03F003039B000F22C8
:101A7C0002FA03F3DB43FA681340FB607B68494AC4
:101A8C0093420DD07B68484A934207D07B68474A03
:101A9C00934201D1022304E0032302E0012300E07E
:101AAC0000237A6A02F0030292009340FA6813430F
:101ABC00FB603B497B6A9B080233FA6841F82320A0
:101ACC003B685B6803F48013002B06D0384B9A6894
:101ADC003749BB6913438B6006E0354B9A68BB6989
:101AEC00DB43334913408B603B685B6803F40013A2
:101AFC00002B06D02E4BDA682D49BB691343CB6003
:101B0C0006E02B4BDA68BB69DB4329491340CB60F9
:101B1C003B685B6803F40033002B06D0244B5A68F7
:101B2C002349BB6913434B6006E0214B5A68BB69E0
:101B3C00DB431F4913404B603B685B6803F4803305
:101B4C00002B06D01A4B1A681949BB6913430B605A
:101B5C0006E0174B1A68BB69DB43154913400B6051
:101B6C007B6A01337B623B681A687B6A22FA03F357
:101B7C00002B7FF4AFAE00BF00BF2C37BD4680BC3E
:101B8C00704700BF0000321000003110000022101E
:101B9C000000211000001210000011100010024073
:101BAC000000014000080140000C01400010014001
:101BBC000004014080B485B000AF78600B467B8098
:101BCC007B689A687B881340002B02D00123FB733F
:101BDC0001E00023FB73FB7B18461437BD4680BC29
:101BEC00704780B483B000AF78600B467B8013469F
:101BFC007B707B78002B03D07A887B681A6103E0BA
:101C0C007B881A047B681A6100BF0C37BD4680BC08
:101C1C00704780B485B000AF78600B467B807B68E2
:101C2C00DB68FB607A88FB6813401A04FB68D943B5
:101C3C007B880B401A437B681A6100BF1437BD4682
:101C4C0080BC704780B586B000AF78607B68002B95
:101C5C0001D101236CE27B681B6803F00103002BAC
:101C6C0000F08780924B5B6803F00C03042B0CD0C4
:101C7C008F4B5B6803F00C03082B12D18C4B5B6809
:101C8C0003F48033B3F5803F0BD1894B1B6803F40D
:101C9C000033002B6CD07B685B68002B68D1012370
:101CAC0046E27B685B68B3F5803F06D1804B1B68CE
:101CBC007F4A43F4803313602EE07B685B68002B13
:101CCC000CD17B4B1B687A4A23F480331360784B1E
:101CDC001B68774A23F4802313601DE07B685B68E4
:101CEC00B3F5A02F0CD1724B1B68714A43F48023BF
:101CFC0013606F4B1B686E4A43F4803313600BE028
:101D0C006B4B1B686A4A23F480331360684B1B6867
:101D1C00674A23F4802313607B685B68002B13D025
:101D2C00FFF7B6FC386108E0FFF7B2FC02463B69EE
:101D3C00D31A642B01D90323FAE15D4B1B6803F41E
:101D4C000033002BF0D014E0FFF7A2FC386108E060
:101D5C00FFF79EFC02463B69D31A642B01D903237F
:101D6C00E6E1534B1B6803F40033002BF0D100E089
:101D7C0000BF7B681B6803F00203002B63D04C4B45
:101D8C005B6803F00C03002B0BD0494B5B6803F032
:101D9C000C03082B1CD1464B5B6803F48033002BDF
:101DAC0016D1434B1B6803F00203002B05D07B6854
:101DBC001B69012B01D00123BAE13D4B1B6823F0B9
:101DCC00F8027B685B69DB00394913430B603AE02E
:101DDC007B681B69002B20D0364B01221A60FFF761
:101DEC0057FC386108E0FFF753FC02463B69D31AF5
:101DFC00022B01D903239BE12D4B1B6803F002033B
:101E0C00002BF0D02A4B1B6823F0F8027B685B692F
:101E1C00DB00274913430B6015E0264B00221A60A8
:101E2C00FFF736FC386108E0FFF732FC02463B69ED
:101E3C00D31A022B01D903237AE11D4B1B6803F043
:101E4C000203002BF0D17B681B6803F00803002B06
:101E5C003AD07B689B69002B19D0174B01221A6072
:101E6C00FFF716FC386108E0FFF712FC02463B69ED
:101E7C00D31A022B01D903235AE10D4B5B6A03F0F1
:101E8C000203002BF0D0012000F09AFA1CE00A4B60
:101E9C0000221A60FFF7FCFB38610FE0FFF7F8FB3C
:101EAC0002463B69D31A022B08D9032340E100BF39
:101EBC000010024000004242800442429E4B5B6A8A
:101ECC0003F00203002BE9D17B681B6803F00403C9
:101EDC00002B00F0A6800023FB75974BDB6903F009
:101EEC008053002B0DD1944BDB69934A43F0805304
:101EFC00D361914BDB6903F08053BB60BB6801235A
:101F0C00FB758E4B1B6803F48073002B18D18B4B25
:101F1C001B688A4A43F480731360FFF7B9FB38617E
:101F2C0008E0FFF7B5FB02463B69D31A642B01D9D5
:101F3C000323FDE0814B1B6803F48073002BF0D06E
:101F4C007B68DB68012B06D17B4B1B6A7A4A43F01A
:101F5C00010313622DE07B68DB68002B0CD1764B00
:101F6C001B6A754A23F001031362734B1B6A724A96
:101F7C0023F0040313621CE07B68DB68052B0CD197
:101F8C006D4B1B6A6C4A43F0040313626A4B1B6A69
:101F9C00694A43F0010313620BE0674B1B6A664A04
:101FAC0023F001031362644B1B6A634A23F004039E
:101FBC0013627B68DB68002B15D0FFF769FB386177
:101FCC000AE0FFF765FB02463B69D31A41F28832FF
:101FDC00934201D90323ABE0574B1B6A03F0020376
:101FEC00002BEED014E0FFF753FB38610AE0FFF74B
:101FFC004FFB02463B69D31A41F28832934201D916
:10200C00032395E04C4B1B6A03F00203002BEED12B
:10201C00FB7D012B05D1484BDB69474A23F08053EC
:10202C00D3617B68DB69002B00F08180424B5B68DD
:10203C0003F00C03082B61D07B68DB69022B46D1C3
:10204C003F4B00221A60FFF723FB386108E0FFF7D3
:10205C001FFB02463B69D31A022B01D9032367E00D
:10206C00354B1B6803F00073002BF0D17B681B6AA7
:10207C00B3F5803F08D1304B5B6823F400327B68AA
:10208C009B682D4913434B602B4B5B6823F47412F4
:10209C007B68196A7B685B6A0B43274913434B6067
:1020AC00274B01221A60FFF7F3FA386108E0FFF7BB
:1020BC00EFFA02463B69D31A022B01D9032337E00E
:1020CC001D4B1B6803F00073002BF0D02FE01C4B52
:1020DC0000221A60FFF7DCFA386108E0FFF7D8FA43
:1020EC0002463B69D31A022B01D9032320E0124B81
:1020FC001B6803F00073002BF0D118E07B68DB69E0
:10210C00012B01D1012313E00B4B5B68FB60FB68D7
:10211C0003F480327B681B6A9A4206D1FB6803F495
:10212C0070127B685B6A9A4201D0012300E00023A5
:10213C0018461837BD4680BD0010024000700040A4
:10214C006000424280B584B000AF786039607B6833
:10215C00002B01D10123D0E06A4B1B6803F007036D
:10216C003A689A4210D9674B1B6823F007026549FD
:10217C003B6813430B60634B1B6803F007033A681F
:10218C009A4201D00123B8E07B681B6803F002037C
:10219C00002B20D07B681B6803F00403002B05D0B8
:1021AC00594B5B68584A43F4E06353607B681B6887
:1021BC0003F00803002B05D0534B5B68524A43F4E1
:1021CC0060535360504B5B6823F0F0027B689B6854
:1021DC004D4913434B607B681B6803F00103002BD4
:1021EC0040D07B685B68012B07D1474B1B6803F41D
:1021FC000033002B15D101237FE07B685B68022B39
:10220C0007D1414B1B6803F00073002B09D101234C
:10221C0073E03D4B1B6803F00203002B01D101233B
:10222C006BE0394B5B6823F003027B685B683649D3
:10223C0013434B60FFF72CFAF8600AE0FFF728FA1B
:10224C000246FB68D31A41F28832934201D9032328
:10225C0053E02D4B5B6803F00C027B685B689B00C2
:10226C009A42EBD1274B1B6803F007033A689A425A
:10227C0010D2244B1B6823F0070222493B681343FE
:10228C000B60204B1B6803F007033A689A4201D09D
:10229C00012332E07B681B6803F00403002B08D099
:1022AC00194B5B6823F4E0627B68DB6816491343C7
:1022BC004B607B681B6803F00803002B09D0124BA2
:1022CC005B6823F460527B681B69DB000E49134387
:1022DC004B6000F021F802460B4B5B681B0903F0C6
:1022EC000F030A49CB5C22FA03F3094A1360094B2A
:1022FC001B681846FFF78AF9002318461037BD46AD
:10230C0080BD00BF0020024000100240302C0008AD
:10231C00100000203C00002080B487B000AF0023E8
:10232C00FB600023BB6000237B6100237B600023E8
:10233C003B611E4B5B68FB60FB6803F00C03042BDA
:10234C0002D0082B03D027E0194B3B6127E0FB6838
:10235C009B0C03F00F03174AD35C7B60FB6803F400
:10236C008033002B10D0114B5B685B0C03F0010326
:10237C00114AD35CBB607B680D4A02FB03F2BB685D
:10238C00B2FBF3F37B6104E07B680C4A02FB03F3C2
:10239C007B617B693B6102E0054B3B6100BF3B69A4
:1023AC0018461C37BD4680BC704700BF0010024069
:1023BC0000127A00402C0008502C000800093D0047
:1023CC0080B485B000AF78600A4B1B680A4AA2FB48
:1023DC0003235B0A7A6802FB03F3FB6000BFFB6814
:1023EC005A1EFA60002BF9D100BF00BF1437BD464E
:1023FC0080BC704710000020D34D621080B582B0B5
:10240C0000AF78607B68002B01D1012341E07B6831
:10241C0093F83D30DBB2002B06D17B68002283F8A9
:10242C003C207868FFF70EF87B68022283F83D2089
:10243C007B681A687B6804331946104600F056FA1C
:10244C007B68012283F846207B68012283F83E20BA
:10245C007B68012283F83F207B68012283F84020AF
:10246C007B68012283F841207B68012283F842209B
:10247C007B68012283F843207B68012283F8442087
:10248C007B68012283F845207B68012283F83D207C
:10249C00002318460837BD4680BD000080B485B0C7
:1024AC0000AF78607B6893F83D30DBB2012B01D034
:1024BC00012335E07B68022283F83D207B681B6892
:1024CC00DA687B681B6842F00102DA607B681B6883
:1024DC00164A934209D07B681B68B3F1804F04D035
:1024EC007B681B68124A934211D17B681B689B68FE
:1024FC0003F00703FB60FB68062B10D07B681B689E
:10250C001A687B681B6842F001021A6007E07B685E
:10251C001B681A687B681B6842F001021A60002372
:10252C0018461437BD4680BC704700BF002C0140D4
:10253C000004004080B584B000AF78607B681B68F5
:10254C00DB68FB607B681B681B69BB60BB6803F0C6
:10255C000203002B20D0FB6803F00203002B1BD0DE
:10256C007B681B686FF002021A617B6801221A7784
:10257C007B681B689B6903F00303002B03D078680E
:10258C0000F098F905E0786800F08BF9786800F0B5
:10259C009AF97B6800221A77BB6803F00403002BBE
:1025AC0020D0FB6803F00403002B1BD07B681B6856
:1025BC006FF004021A617B6802221A777B681B6831
:1025CC009B6903F44073002B03D0786800F072F918
:1025DC0005E0786800F065F9786800F074F97B68BC
:1025EC0000221A77BB6803F00803002B20D0FB688D
:1025FC0003F00803002B1BD07B681B686FF00802EC
:10260C001A617B6804221A777B681B68DB6903F00C
:10261C000303002B03D0786800F04CF905E07868D0
:10262C0000F03FF9786800F04EF97B6800221A77C9
:10263C00BB6803F01003002B20D0FB6803F01003E1
:10264C00002B1BD07B681B686FF010021A617B6833
:10265C0008221A777B681B68DB6903F44073002B34
:10266C0003D0786800F026F905E0786800F019F9D5
:10267C00786800F028F97B6800221A77BB6803F0B1
:10268C000103002B0CD0FB6803F00103002B07D0D7
:10269C007B681B686FF001021A617868FEF78EFE8A
:1026AC00BB6803F08003002B0CD0FB6803F08003A5
:1026BC00002B07D07B681B686FF080021A6178686A
:1026CC0000F06FFABB6803F04003002B0CD0FB68E2
:1026DC0003F04003002B07D07B681B686FF04002AF
:1026EC001A61786800F0F8F8BB6803F02003002B3F
:1026FC000CD0FB6803F02003002B07D07B681B6811
:10270C006FF020021A61786800F042FA00BF1037AF
:10271C00BD4680BD80B584B000AF786039600023C1
:10272C00FB737B6893F83C30012B01D10223B4E09E
:10273C007B68012283F83C207B68022283F83D20D1
:10274C007B681B689B68BB60BB6823F07703BB602E
:10275C00BB6823F47F43BB607B681B68BA689A60D4
:10276C003B681B68B3F5005F3ED0B3F5005F00F229
:10277C008780B3F5805F00F08680B3F5805F7FD8EB
:10278C00702B1AD0702B7BD8602B50D0602B77D845
:10279C00502B3CD0502B73D8402B58D0402B6FD89B
:1027AC00302B64D0302B6BD8202B60D0202B67D8EB
:1027BC00002B5CD0102B5AD062E07B6818683B6809
:1027CC0099683B685A683B68DB6800F06AF97B687B
:1027DC001B689B68BB60BB6843F07703BB607B687E
:1027EC001B68BA689A604FE07B6818683B68996808
:1027FC003B685A683B68DB6800F053F97B681B68E0
:10280C009A687B681B6842F480429A603CE07B6863
:10281C0018683B6859683B68DB681A4600F0CAF8D0
:10282C007B681B685021184600F021F92CE07B686E
:10283C0018683B6859683B68DB681A4600F0E8F892
:10284C007B681B686021184600F011F91CE07B685E
:10285C0018683B6859683B68DB681A4600F0AAF8B0
:10286C007B681B684021184600F001F90CE07B687E
:10287C001A683B681B681946104600F0F8F803E02C
:10288C000123FB7300E000BF7B68012283F83D202D
:10289C007B68002283F83C20FB7B18461037BD4632
:1028AC0080BD80B483B000AF786000BF0C37BD46EC
:1028BC0080BC704780B483B000AF786000BF0C3729
:1028CC00BD4680BC704780B483B000AF786000BF59
:1028DC000C37BD4680BC704780B483B000AF7860C5
:1028EC0000BF0C37BD4680BC7047000080B485B07B
:1028FC0000AF786039607B681B68FB607B682B4A93
:10290C00934207D07B68B3F1804F03D07B68284A91
:10291C00934208D1FB6823F07003FB603B685B6853
:10292C00FA681343FB607B68204A934207D07B68AC
:10293C00B3F1804F03D07B681D4A934208D1FB68EA
:10294C0023F44073FB603B68DB68FA681343FB605D
:10295C00FB6823F080023B685B691343FB607B6878
:10296C00FA681A603B689A687B68DA623B681A6896
:10297C007B689A627B680D4A934203D13B681A6963
:10298C007B681A637B6801225A617B681B6903F0C0
:10299C000103002B05D07B681B6923F001027B68C7
:1029AC001A6100BF1437BD4680BC7047002C014033
:1029BC000004004080B487B000AFF860B9607A6062
:1029CC00FB681B6A7B61FB681B6A23F00102FB68D6
:1029DC001A62FB689B693B613B6923F0F0033B6126
:1029EC007B681B013A6913433B617B6923F00A0343
:1029FC007B617A69BB6813437B61FB683A699A61B6
:102A0C00FB687A691A6200BF1C37BD4680BC7047F0
:102A1C0080B487B000AFF860B9607A60FB681B6A5D
:102A2C007B61FB681B6A23F01002FB681A62FB686F
:102A3C009B693B613B6923F470433B617B681B03DF
:102A4C003A6913433B617B6923F0A0037B61BB684C
:102A5C001B017A6913437B61FB683A699A61FB68D5
:102A6C007A691A6200BF1C37BD4680BC704780B4BF
:102A7C0085B000AF786039607B689B68FB60FB6851
:102A8C0023F07003FB603A68FB68134343F00703C1
:102A9C00FB607B68FA689A6000BF1437BD4680BC47
:102AAC00704780B487B000AFF860B9607A603B6063
:102ABC00FB689B687B617B6923F47F437B613B688C
:102ACC001A027B681A43BB6813437A6913437B6110
:102ADC00FB687A699A6000BF1C37BD4680BC7047A2
:102AEC0080B485B000AF786039607B6893F83C3077
:102AFC00012B01D1022341E07B68012283F83C20A9
:102B0C007B68022283F83D207B681B685B68FB6056
:102B1C007B681B689B68BB60FB6823F07003FB60E1
:102B2C003B681B68FA681343FB607B681B68FA6898
:102B3C005A607B681B68144A934209D07B681B68F7
:102B4C00B3F1804F04D07B681B68104A93420CD1C0
:102B5C00BB6823F08003BB603B685B68BA681343B7
:102B6C00BB607B681B68BA689A607B68012283F83B
:102B7C003D207B68002283F83C2000231846143744
:102B8C00BD4680BC704700BF002C014000040040D3
:102B9C0080B483B000AF786000BF0C37BD4680BCFA
:102BAC00704780B483B000AF786000BF0C37BD466F
:102BBC0080BC704770B500260C4D0D4C641BA410E6
:102BCC00A64209D100F022F800260A4D0A4C641BDB
:102BDC00A410A64205D170BD55F8043B98470136A8
:102BEC00EEE755F8043B98470136F2E7542C000801
:102BFC00542C0008542C0008582C0008034602449E
:102C0C00934200D1704703F8011BF9E7F8B500BFF8
:102C1C00F8BC08BC9E467047F8B500BFF8BC08BCB1
:042C2C009E46704709
:102C3000000000000000000001020304060708096C
:102C400002030405060708090A0B0C0D0E0F1010ED
:042C5000010200007D
:042C54003101000842
:042C58000D01000862
:102C5C00050000000300000002000000010000005D
:102C6C0000127A0032000000E8030000FA000000B5
:102C7C00FA000000FFFFFF7F0000000000000000D2
:102C8C000000000000000000000000001000000028
:042C9C000100000033
:04000005080015A139
:00000001FF
